{"@api3/airnode-protocol-v1/contracts/dapis/DapiReader.sol":{"DapiReader":{"abi":[{"inputs":[{"internalType":"address","name":"_dapiServer","type":"address"}],"stateMutability":"nonpayable","type":"constructor"},{"inputs":[],"name":"dapiServer","outputs":[{"internalType":"address","name":"","type":"address"}],"stateMutability":"view","type":"function"}],"devdoc":{"kind":"dev","methods":{"constructor":{"params":{"_dapiServer":"DapiServer contract address"}}},"title":"Contract to be inherited by contracts that will read from a DapiServer contract","version":1},"evm":{"bytecode":{"linkReferences":{},"object":"608060405234801561001057600080fd5b5060405161018938038061018983398101604081905261002f916100ba565b6100388161003e565b506100ea565b6001600160a01b0381166100985760405162461bcd60e51b815260206004820152601860248201527f64415049207365727665722061646472657373207a65726f0000000000000000604482015260640160405180910390fd5b600080546001600160a01b0319166001600160a01b0392909216919091179055565b6000602082840312156100cc57600080fd5b81516001600160a01b03811681146100e357600080fd5b9392505050565b6091806100f86000396000f3fe6080604052348015600f57600080fd5b506004361060285760003560e01c80639f03866b14602d575b600080fd5b600054603f906001600160a01b031681565b6040516001600160a01b03909116815260200160405180910390f3fea2646970667358221220f70cd66ce9707aba79221415e8988aa63bc614bc89607cb1d1f806e45cd272d564736f6c63430008090033","opcodes":"PUSH1 0x80 PUSH1 0x40 MSTORE CALLVALUE DUP1 ISZERO PUSH2 0x10 JUMPI PUSH1 0x0 DUP1 REVERT JUMPDEST POP PUSH1 0x40 MLOAD PUSH2 0x189 CODESIZE SUB DUP1 PUSH2 0x189 DUP4 CODECOPY DUP2 ADD PUSH1 0x40 DUP2 SWAP1 MSTORE PUSH2 0x2F SWAP2 PUSH2 0xBA JUMP JUMPDEST PUSH2 0x38 DUP2 PUSH2 0x3E JUMP JUMPDEST POP PUSH2 0xEA JUMP JUMPDEST PUSH1 0x1 PUSH1 0x1 PUSH1 0xA0 SHL SUB DUP2 AND PUSH2 0x98 JUMPI PUSH1 0x40 MLOAD PUSH3 0x461BCD PUSH1 0xE5 SHL DUP2 MSTORE PUSH1 0x20 PUSH1 0x4 DUP3 ADD MSTORE PUSH1 0x18 PUSH1 0x24 DUP3 ADD MSTORE PUSH32 0x64415049207365727665722061646472657373207A65726F0000000000000000 PUSH1 0x44 DUP3 ADD MSTORE PUSH1 0x64 ADD PUSH1 0x40 MLOAD DUP1 SWAP2 SUB SWAP1 REVERT JUMPDEST PUSH1 0x0 DUP1 SLOAD PUSH1 0x1 PUSH1 0x1 PUSH1 0xA0 SHL SUB NOT AND PUSH1 0x1 PUSH1 0x1 PUSH1 0xA0 SHL SUB SWAP3 SWAP1 SWAP3 AND SWAP2 SWAP1 SWAP2 OR SWAP1 SSTORE JUMP JUMPDEST PUSH1 0x0 PUSH1 0x20 DUP3 DUP5 SUB SLT ISZERO PUSH2 0xCC JUMPI PUSH1 0x0 DUP1 REVERT JUMPDEST DUP2 MLOAD PUSH1 0x1 PUSH1 0x1 PUSH1 0xA0 SHL SUB DUP2 AND DUP2 EQ PUSH2 0xE3 JUMPI PUSH1 0x0 DUP1 REVERT JUMPDEST SWAP4 SWAP3 POP POP POP JUMP JUMPDEST PUSH1 0x91 DUP1 PUSH2 0xF8 PUSH1 0x0 CODECOPY PUSH1 0x0 RETURN INVALID PUSH1 0x80 PUSH1 0x40 MSTORE CALLVALUE DUP1 ISZERO PUSH1 0xF JUMPI PUSH1 0x0 DUP1 REVERT JUMPDEST POP PUSH1 0x4 CALLDATASIZE LT PUSH1 0x28 JUMPI PUSH1 0x0 CALLDATALOAD PUSH1 0xE0 SHR DUP1 PUSH4 0x9F03866B EQ PUSH1 0x2D JUMPI JUMPDEST PUSH1 0x0 DUP1 REVERT JUMPDEST PUSH1 0x0 SLOAD PUSH1 0x3F SWAP1 PUSH1 0x1 PUSH1 0x1 PUSH1 0xA0 SHL SUB AND DUP2 JUMP JUMPDEST PUSH1 0x40 MLOAD PUSH1 0x1 PUSH1 0x1 PUSH1 0xA0 SHL SUB SWAP1 SWAP2 AND DUP2 MSTORE PUSH1 0x20 ADD PUSH1 0x40 MLOAD DUP1 SWAP2 SUB SWAP1 RETURN INVALID LOG2 PUSH5 0x6970667358 0x22 SLT KECCAK256 0xF7 0xC 0xD6 PUSH13 0xE9707ABA79221415E8988AA63B 0xC6 EQ 0xBC DUP10 PUSH1 0x7C 0xB1 0xD1 0xF8 MOD 0xE4 0x5C 0xD2 PUSH19 0xD564736F6C6343000809003300000000000000 "},"gasEstimates":{"creation":{"codeDepositCost":"29000","executionCost":"infinite","totalCost":"infinite"},"external":{"dapiServer()":"2303"},"internal":{"setDapiServer(address)":"infinite"}},"methodIdentifiers":{"dapiServer()":"9f03866b"}},"storageLayout":{"storage":[{"astId":9,"contract":"@api3/airnode-protocol-v1/contracts/dapis/DapiReader.sol:DapiReader","label":"dapiServer","offset":0,"slot":"0","type":"t_address"}],"types":{"t_address":{"encoding":"inplace","label":"address","numberOfBytes":"20"}}},"userdoc":{"kind":"user","methods":{"dapiServer()":{"notice":"DapiServer contract address"}},"version":1}}}}