{
  "_format": "hh-sol-artifact-1",
  "contractName": "DapiReader",
  "sourceName": "@api3/airnode-protocol-v1/contracts/dapis/DapiReader.sol",
  "abi": [
    {
      "inputs": [
        {
          "internalType": "address",
          "name": "_dapiServer",
          "type": "address"
        }
      ],
      "stateMutability": "nonpayable",
      "type": "constructor"
    },
    {
      "inputs": [],
      "name": "dapiServer",
      "outputs": [
        {
          "internalType": "address",
          "name": "",
          "type": "address"
        }
      ],
      "stateMutability": "view",
      "type": "function"
    }
  ],
  "bytecode": "0x608060405234801561001057600080fd5b5060405161018938038061018983398101604081905261002f916100ba565b6100388161003e565b506100ea565b6001600160a01b0381166100985760405162461bcd60e51b815260206004820152601860248201527f64415049207365727665722061646472657373207a65726f0000000000000000604482015260640160405180910390fd5b600080546001600160a01b0319166001600160a01b0392909216919091179055565b6000602082840312156100cc57600080fd5b81516001600160a01b03811681146100e357600080fd5b9392505050565b6091806100f86000396000f3fe6080604052348015600f57600080fd5b506004361060285760003560e01c80639f03866b14602d575b600080fd5b600054603f906001600160a01b031681565b6040516001600160a01b03909116815260200160405180910390f3fea2646970667358221220f70cd66ce9707aba79221415e8988aa63bc614bc89607cb1d1f806e45cd272d564736f6c63430008090033",
  "linkReferences": {},
  "deployedLinkReferences": {}
}